:020000040800F2
:10000000700700207105000895020008970200089B
:100010009B0200089F020008A302000800000000E5
:10002000000000000000000000000000A70200081F
:10003000A902000800000000AB02000889050008C2
:100040008B0500088B0500088B0500088B05000850
:100050008B0500088B0500088B0500088B05000840
:100060008B0500088B0500088B0500088B05000830
:100070008B0500088B0500088B0500088B05000820
:100080008B0500088B0500088B0500088B05000810
:100090008B0500088B0500088B0500088B05000800
:1000A0008B0500088B0500088B0500088B050008F0
:1000B0008B0500088B0500088B0500088B050008E0
:1000C0008B0500088B0500088B0500088B050008D0
:1000D0008B050008711700088B0500088B050008C8
:1000E0008B0500088B0500088B05000800F002F85E
:1000F00000F03FF80AA090E8000C82448344AAF183
:100100000107DA4501D100F034F8AFF2090EBAE880
:100110000F0013F0010F18BFFB1A43F0010318473B
:10012000A4190000C4190000103A24BF78C878C18F
:10013000FAD8520724BF30C830C144BF04680C60ED
:10014000704700000023002400250026103A28BF35
:1001500078C1FBD8520728BF30C148BF0B60704739
:10016000642901F05983002070471FB51FBD10B5E9
:1001700010BD01F077FC1146FFF7F7FF00F013F810
:1001800001F095FC03B4FFF7F2FF03BC01F096FA0F
:1001900070B50446049D601AEE1A7043561A90FB1F
:1001A000F6F0184470BD08B501F01AFA01F080FAB3
:1001B0004FF4165001F090FA00F066F94FF47A709F
:1001C00001F04AFA22A001F01BFB3FE00A210120C6
:1001D00000F0B3F92249088040F6E440002340F6DD
:1001E000FF72194600901E480088FFF7D1FF1D4995
:1001F000086008460068642803DA00201A4908608D
:1002000017E01848006840F6E441884204DD41F2F6
:100210007070154908600CE041F27070142340F6CC
:10022000E442642100900F480068FFF7B1FF0E49D7
:1002300008600D4803680B480268094801880BA054
:1002400001F0DEFA4FF4FA7001F006FABEE70000A2
:10025000546573742073746172740D0A0000000099
:10026000040000200C000020080000204144D6B506
:10027000203D2025642CB5E7D1B9203D2025642000
:100280006D762CD1B9C1A6203D20256C6420670D68
:100290000A000000704700BFFEE700BFFEE700BF96
:1002A000FEE700BFFEE77047704770470CB50020BF
:1002B000019000906B48006840F480306949086004
:1002C00000BF6848006800F4003000900198401CAE
:1002D0000190009818B90198B0F5A06FF1D161486C
:1002E000006810F4003F02D00120009001E00020DF
:1002F00000900098012842D15B48006840F010004F
:10030000594908600846006820F003000860084664
:10031000006840F002000860524840685149486057
:100320000846406848600846406840F4806048607D
:100330000846406820F47C1048600846406840F455
:10034000E81048600846006840F08070086000BF10
:100350004448006810F0007FFAD04248406820F01E
:100360000300404948600846406840F00200486089
:1003700000BF3C48406800F00C000828F9D10CBDD3
:1003800010B5FFF793FF10BD10B53648006840F078
:100390000100344908600846406834490840314942
:1003A000486008460068324908402E4908600846FF
:1003B000006820F4802008600846406820F4FE00B1
:1003C00048604FF41F008860FFF7DAFF4FF00060CD
:1003D0002849086010BD10B5002100200022214BE3
:1003E0005B6803F00C0121B1042906D0082928D14B
:1003F00007E0214B214C236027E01F4B1F4C23605B
:1004000023E0184B5B6803F47010164B5B6803F431
:100410008032022303EB904022B9194B4343174C1F
:1004200023600DE00F4B5B6813F4003F04D0144BC6
:100430004343124C236003E00F4B43430F4C2360B4
:1004400003E00D4B0D4C236000BF00BF054B5B6804
:10045000C3F303130B4CE15C084B1B68CB40074C08
:10046000236010BD00100240002002400000FFF891
:10047000FFFFF6FE08ED00E000127A0010000020F9
:1004800000093D001400002000B587B001214FF4A1
:10049000017000F011FC4FF4004000F074FB0220EA
:1004A000ADF8040000208DF8070001A92E4800F0E7
:1004B0004DF92E4800F06CFE002002908DF80C00E3
:1004C0008DF80D004FF4602004900020059001206D
:1004D0008DF8180002A9254800F081FE012123486B
:1004E00000F0A9FE214800F0C8FE00BF1F4800F040
:1004F000C9FE0028FAD11D4800F0CEFE00BF1B48FF
:1005000000F0CFFE0028FAD107B000BD10B50446B8
:10051000072301222146154800F0F9FE0121134866
:1005200000F0C9FE00BF0221104801F035F8002894
:10053000F9D00E4800F052FF10BD2DE9F0410746FA
:100540000C460025002608E03846FFF7DFFF05448B
:10055000052001F081F8701CC6B2A642F4DBB5FBA1
:10056000F4F080B2BDE8F0810008014000240140B1
:100570000948804709480047FEE7FEE7FEE7FEE737
:10058000FEE7FEE7FEE7FEE7FEE7FEE70448054973
:10059000054A064B7047000089030008ED0000087B
:1005A00070010020700700207003002070030020FD
:1005B00031490143314A1160704770B50021002371
:1005C0000F22C4780CB32D4C246804F4E064C4F505
:1005D000E064210AC1F10403CA40447804FA03F13B
:1005E0008478144021430901254C0678A1550478EC
:1005F00004F01F050124AC4005786D114FF0E02692
:1006000006EB8505C5F8004109E0047804F01F05F4
:100610000124AC401B4D0678761145F8264070BD8C
:10062000194A0A400243154B1B1F1A60704739B123
:10063000124A121D12680243104B1B1D1A6006E07D
:100640000E4A121D126882430C4B1B1D1A60704724
:10065000042808D14FF0E021096941F004014FF06E
:10066000E022116107E04FF0E021096921F0040167
:100670004FF0E022116170470000FA050CED00E038
:1006800000E400E080E100E080FFFF1F10B50446B9
:10069000CA48844208D10121042000F027FB002130
:1006A000042000F023FB46E0C548844208D1012124
:1006B000082000F01BFB0021082000F017FB3AE0A7
:1006C000C048844208D10121102000F00FFB002116
:1006D000102000F00BFB2EE0BB48844208D1012122
:1006E000202000F003FB0021202000F0FFFA22E090
:1006F000B648844208D10121402000F0F7FA0021D9
:10070000402000F0F3FA16E0B148844208D10121FC
:10071000802000F0EBFA0021802000F0E7FA0AE0E8
:10072000AC48844207D10121801500F0DFFA002196
:10073000A01500F0DBFA10BD10B50121084600F04D
:10074000D5FA0021012000F0D1FA10BD2DE9F041C9
:10075000024600250026002000230024002791F8EF
:1007600003C00CF00F0591F803C01CF0100F03D06C
:1007700091F802C04CEA050591F800C0BCF1000FE9
:1007800031D0146800202BE04FF0010C0CFA00F37C
:10079000B1F800C00CEA03069E4220D183004FF05E
:1007A0000F0C0CFA03F7BC4305FA03FC4CEA0404F3
:1007B00091F803C0BCF1280F06D14FF0010C0CFAE0
:1007C00000FCC2F814C00AE091F803C0BCF1480F65
:1007D00005D14FF0010C0CFA00FCC2F810C0401C0F
:1007E0000828D1D31460B1F800C0BCF1FF0F34DD8C
:1007F000546800202EE000F1080C4FF0010808FAC0
:100800000CF3B1F800C00CEA03069E4221D183002C
:100810004FF00F0C0CFA03F7BC4305FA03FC4CEA4B
:10082000040491F803C0BCF1280F05D100F1080CB5
:1008300008FA0CF8C2F8148091F803C0BCF1480F14
:1008400007D100F1080C4FF0010808FA0CF8C2F8C3
:100850001080401C0828CED35460BDE8F0814FF6CC
:10086000FF710180022181700421C170704702462E
:10087000002093680B4201D0012000E00020704767
:100880000146886880B2704702460020D3680B4258
:1008900001D0012000E0002070470146C86880B206
:1008A000704701617047416170470AB1016100E022
:1008B00041617047C16070474FF480320A438261E2
:1008C0008161826182698269704702460020424BE1
:1008D00018684FF68073184040EA021008433E4BF8
:1008E000186070473D49C8617047F0B50A4600235B
:1008F00000240021002500F00046B6F1004F02D18F
:10090000354EF16901E0344E7168C0F3034583B29E
:1009100000F44016B6F5401F08D121F070612E4E4C
:10092000766826F070662C4F7E6012E000F4801628
:10093000B6F5801F06D1032606FA05F4A14341F05F
:10094000706106E0460D360103FA06F6B14341F048
:10095000706122B1460D360103FA06F6314300F00C
:100960000046B6F1004F02D11B4EF16101E01A4E74
:100970007160F0BD30B500228B071C0F0F2303FA06
:1009800004F2154B08338C1053F824309343124C67
:1009900008348D1044F8253023468C1053F8243049
:1009A0008C07240F00FA04F423430B4C08348D10F9
:1009B00044F8253030BD0A490860704700080140FE
:1009C000000C0140001001400014014000180140DB
:1009D000001C0140002001400000014000002042B6
:1009E000DC002042DD48006840F00100DB4908607F
:1009F00008464068DA490840D84948600846006817
:100A0000D8490840D54908600846006820F480208D
:100A100008600846406820F4FE0048604FF41F005C
:100A200088607047CD49096821F48031CB4A116054
:100A30001146096821F480211160B0F5803F03D090
:100A4000B0F5802F0ED106E0C449096841F4803129
:100A5000C24A116007E0C149096841F4A021BF4AB8
:100A6000116000E000BF00BF704710B501460022D2
:100A7000002300204A11012A02D1B84C236806E065
:100A8000022A02D1B54C236A01E0B44C636A01F03A
:100A90001F02012494401C4201D0012000E00020EC
:100AA00010BD38B5002000900024002500BF312083
:100AB000FFF7DBFF05460098401C00900098B0F55A
:100AC000A06F01D0002DF2D03120FFF7CEFF08B18A
:100AD000012400E00024204638BD014600209F4A42
:100AE000106820F0F80040EAC100106070479E498D
:100AF0000860704702460020984B586820F47C102C
:100B000042EA01031843954B5860704796490866BE
:100B1000704701460020914A506820F003000843C6
:100B2000506070478D48406800F00C0070470146E7
:100B300000208A4A506820F0F00008435060704757
:100B400001460020854A506820F4E0600843506068
:100B5000704701460020814A506820F4605040EA06
:100B6000C1005060704729B17C4A527A02437B4BE6
:100B70005A7204E0794A527A8243784B5A7270472B
:100B80007A490860704701460020744A506820F492
:100B900040400843506070470021754A11706F4A09
:100BA00082F82010012802D0042808D103E0012196
:100BB0006F4A117004E005216D4A117000E000BF1A
:100BC00000BF70476B49086070476449096A014378
:100BD000624A11627047674944390860704730B50E
:100BE00000210022002400235C4D6D6805F00C01FB
:100BF00021B1042905D0082923D105E05E4D056007
:100C000022E05D4D05601FE0544D6D6805F47012E3
:100C1000524D6D6805F48034022505EB92421CB9F3
:100C2000564D554305600BE04C4D6D6815F4003F83
:100C300003D0524D5543056002E04F4D55430560CA
:100C400002E04D4D056000BF00BF444D6D6805F0EA
:100C5000F00109094A4D6B5C0568DD4045603F4D78
:100C60006D6805F4E061090A454D6B5C4568DD403F
:100C700085603A4D6D6805F46051C90A404D6B5C62
:100C80004568DD40C560354D6D6805F44041890B10
:100C90003C4D6B5CC568B5FBF3F5056130BD29B112
:100CA0002E4A526902432D4B5A6104E02B4A526985
:100CB00082432A4B5A61704729B1284A92690243FC
:100CC000264B9A6104E0254A92698243234B9A613C
:100CD000704729B1214AD2690243204BDA6104E00E
:100CE0001E4AD26982431D4BDA61704729B11B4A03
:100CF000D2680243194BDA6004E0184AD268824392
:100D0000164BDA60704729B1144A12690243134B3B
:100D10001A6104E0114A12698243104B1A6170474C
:100D200014494039086070470F49C86470470B493F
:100D3000C87170470948406A40F0807007494862AE
:100D4000704701460020054A92680A4201D00120FE
:100D500000E000207047014988727047001002408F
:100D60000000FFF8FFFFF6FE00004242D8004242BA
:100D7000201002408004424200127A0000093D0027
:100D8000240000203400002010B50446FB488442B3
:100D900009D101218803FFF7A9FF00214FF480400A
:100DA000FFF7A4FF32E0F648844209D1012148044C
:100DB000FFF7A9FF00214FF40030FFF7A4FF25E063
:100DC000F048844209D101218804FFF79CFF0021EB
:100DD0004FF48020FFF797FF18E0EB48844209D1D9
:100DE0000121C804FFF78FFF00214FF40020FFF717
:100DF0008AFF0BE0E548844208D101210805FFF78E
:100E000082FF00214FF48010FFF77DFF10BD2DE918
:100E1000F04786B005460E460024A24600BFA14614
:100E20000027B08900B100BF2F462C8A4CF6FF7016
:100E30000440F08804432C82AC894EF6F310044041
:100E4000B08831890843718908430443AC81AC8A76
:100E50004FF6FF400440B0890443AC8201A8FFF77D
:100E6000BEFEC648874202D1DDF810A001E0DDF8E1
:100E70000CA0A88910F4004F08D00AEBCA0000EBC0
:100E80000A1031684900B0FBF1F807E00AEBCA002C
:100E900000EB0A1031688900B0FBF1F86420B8FB60
:100EA000F0F004012009642101FB1089A88910F4E5
:100EB000004F08D0322000EBC900B0FBF1F000F089
:100EC0000700044308E0322000EB09106421B0FB66
:100ED000F1F000F00F0004432C8106B0BDE8F0876C
:100EE0004FF41651016000218180C18001810C21E5
:100EF000418100218181704710B502460020108A8F
:100F00004FF2FF0318400B884C8823438C882343FF
:100F1000CC8823431843108210BD002101804180FA
:100F20008180C180704721B1828942F40052828160
:100F300004E082894DF6FF731A4082817047F0B554
:100F400003460024002600250020A1F510676A3F13
:100F500000D100BF1846C1F3421401F01F0601275B
:100F600007FA06F5012C01D10C3004E0022C01D166
:100F7000103000E014301AB107682F43076002E018
:100F80000768AF430760F0BD1AB1838A0B438382C1
:100F900002E0838A8B4383827047028A4FF6F073A4
:100FA0001A400282028A0A430282704782894FF203
:100FB000FF731A40828182890A438281704721B17E
:100FC000828942F00202828104E082894FF6FD7339
:100FD0001A4082817047028A4FF6DF731A400282FC
:100FE000028A0A430282704721B1028A42F4804297
:100FF000028204E0028A4BF6FF731A4002827047B5
:10100000C1F308028280704701468888C0F3080057
:101010007047818941F0010181817047028BD2B212
:101020000283028B42EA012202837047028B02F4A0
:101030007F420283028B0A430283704721B1828A76
:1010400042F02002828204E0828A4FF6DF731A4067
:101050008282704721B1828A42F01002828204E0CB
:10106000828A4FF6EF731A408282704721B1828ADA
:1010700042F00802828204E0828A4FF6F7731A4037
:101080008282704721B1828942F40042828103E06A
:101090008289C2F30E028281704721B1828A42F4B2
:1010A0000062828204E0828A4FF2FF731A408282D9
:1010B0007047828A4FF6FB731A408282828A0A4303
:1010C0008282704721B1828A42F00202828204E069
:1010D000828A4FF6FD731A408282704702460020D2
:1010E000B1F5007F00D100BF13880B4201D0012071
:1010F00000E00020704701F40072B2F5007F00D1DB
:1011000000BFCA430280704770B502460024002326
:1011100000250020A1F510666A3E00D100BFC1F392
:10112000421501F01F03012606FA03F3012D02D137
:101130009689334006E0022D02D1168A334001E041
:10114000968A33400C12012606FA04F416883440BD
:1011500013B10CB1012000E0002070BD10B50022D9
:101160000023A1F510646A3C00D100BF0A120124DB
:101170009440A3B2DC43048010BD0000003801405D
:101180000044004000480040004C00400050004037
:1011900010B50446FA48844208D101214015FFF7F2
:1011A000A5FD00216015FFF7A1FD17E0F548844279
:1011B00008D101210015FFF799FD00212015FFF747
:1011C00095FD0BE0F048844208D10121C803FFF7E8
:1011D0008DFD00214FF40040FFF788FD10BD30B5B4
:1011E0000246002000235068E84C20400D790C682E
:1011F00044EA0524204350609068E54C2040D1E942
:1012000002542C434D7944EA450420439060D06A4F
:1012100020F470000C7C641EE4B2234340EA0350C7
:10122000D06230BD00210160017141718160C160F7
:1012300001210174704721B1826842F0010282608D
:1012400003E0826822F001028260704721B1826867
:1012500042F48072826003E0826822F480728260CD
:10126000704710B50023CBB21AB144681C434460E8
:1012700002E044689C43446010BD816841F008016D
:1012800081607047014600208A6812F0080F01D083
:10129000012000E000207047816841F00401816076
:1012A0007047014600208A6812F0040F01D0012027
:1012B00000E00020704721B1826842F4A002826001
:1012C00003E0826822F4A002826070470146002099
:1012D0008A6812F4800F01D0012000E000207047DE
:1012E00010B50A4600210023416821F46041531ED5
:1012F00041EA4331416010BD21B1426842F40062CD
:10130000426003E0426822F4006242607047F0B538
:1013100004460D4600200021092D11DDE068A5F1ED
:101320000A0606EB4607072606FA07F18843A5F1E9
:101330000A0606EB460603FA06F10843E0600CE0F5
:10134000206905EB4507072606FA07F1884305EBF8
:10135000450603FA06F108432061072A0FDA606B9D
:10136000561E06EB86071F2606FA07F18843561E0F
:1013700006EB860605FA06F10843606322E00D2AB3
:101380000FDA206BD61F06EB86071F2606FA07F139
:101390008843D61F06EB860605FA06F1084320634C
:1013A00010E0E06AA2F10D0606EB86071F2606FA9A
:1013B00007F18843A2F10D0606EB860605FA06F151
:1013C0000843E062F0BD21B1826842F4801282607D
:1013D00003E0826822F48012826070470146C86C84
:1013E00080B2704766484C300068704721B142684F
:1013F00042F48062426003E0426822F4806242600C
:10140000704721B1426842F48052426003E0426872
:1014100022F48052426070470A460021816821F41C
:10142000E04111438160704721B1826842F400427B
:10143000826003E0826822F400428260704721B13A
:10144000826842F40212826003E0826822F402128F
:1014500082607047014600208A6812F4001F01D0A4
:10146000012000E000207047F0B50446154600203A
:1014700000220026092911DDE068A1F10A0707EB27
:10148000470C072707FA0CF29043A1F10A0707EB74
:10149000470703FA07F21043E0600CE0206901EB14
:1014A000410C072707FA0CF2904301EB410703FABE
:1014B00007F210432061A06BC0F30156EF1C06F148
:1014C000010CA7EB0C0707EB870C1F2707FA0CF2A0
:1014D0009043EF1C06F1010CA7EB0C0707EB870705
:1014E00001FA07F21043A063F0BD10B50A460021CF
:1014F0000023816B21F44011531E41EA03518163A3
:1015000010BD08B5002300930090009B0B4400938E
:10151000009B1A6008BD08B50246002000900092AA
:1015200001F12800009B184400900098006880B2E8
:1015300008BD0A4600214168164B1940114341601D
:1015400070474162826270470A460021416821F07B
:101550001F0111434160704740B1094908310968D2
:1015600041F40001064A0832116007E004490831DD
:10157000096821F40001024A083211607047000036
:101580000024014000280140003C0140FFFEF0FF24
:10159000FDF7F1FFFFFD3FFF0246002013680B42FD
:1015A00001D0012000E000207047CA43026070476C
:1015B00070B502460020002300240B125568CEB2FD
:1015C00005EA060415681D4202D00CB1012000E0B6
:1015D000002070BD00220A12D34303607047000050
:1015E00010B56FF00400FFF733F82D4800682D495F
:1015F000B0FBF1F02C4908700846007800EB400180
:10160000C1EBC0104FF6FF7101EAC0002749088006
:1016100010BD0146244A12784A434FF0E0235A6134
:1016200000229A611A46126942F001021A6100BF53
:101630004FF0E022106910F0010F02D010F4803F4B
:10164000F6D04FF0E022126922F001024FF0E023C1
:101650001A6100229A6170470146144A12884A436F
:101660004FF0E0235A6100229A611A46126942F053
:1016700001021A6100BF4FF0E022106910F0010F63
:1016800002D010F4803FF6D04FF0E022126922F031
:1016900001024FF0E0231A6100229A6170470000B6
:1016A0001000002000127A00380000203A000020CC
:1016B00010B54FF4A060FEF77BFF10BD014600BFE0
:1016C000704700BF494A128812F0400FFAD0C2B2E8
:1016D000464B1B1D1A80704710B586B00446012189
:1016E00044F20400FFF7E8FA4FF40070ADF814007C
:1016F00003208DF8160018208DF8170005A93C4826
:10170000FFF724F84FF48060ADF8140004208DF842
:10171000170005A93648FFF719F825208DF80000B5
:1017200003208DF801008DF8020001208DF80300E0
:101730006846FEF742FF01940020ADF80800ADF8BE
:101740000A00ADF80C00ADF810000C20ADF80E004A
:1017500001A92648FFF75BFB012240F225512348EF
:10176000FFF7EDFB01212148FFF7DDFB06B010BDBF
:1017700010B540F225511D48FFF7C6FC10B31B48B9
:10178000FFF742FCC4B21B48008810F4004F2BD175
:101790001848008810F4804F0CD00A2C03D0002089
:1017A0001449088020E01348008840F400401149A3
:1017B000088019E00D2C06D10E48008840F48040C6
:1017C0000C49088010E00B480088C0F30D000A495E
:1017D0000C5408480088401C0649088008460088C8
:1017E000C72801DD0020088010BD0000003801403E
:1017F000000801403C000020440000207047000029
:101800000FB4044910B503AA029800F0FDF810BC0B
:101810005DF814FB400000202DE9F041064600244D
:1018200010687529314616A511D0AFF30080002845
:1018300003DAC0F1000013A507E031688A0701D57B
:1018400011A502E0490704D510A5012401E0AFF37A
:10185000008000210A2306F1240707E0B0FBF3F221
:1018600003FB1200303078541046491C0028F5D193
:1018700023462A463046BDE8F04100F069B8000032
:10188000000000002D0000002B00000020000000E0
:101890002DE9F0410F460546002028622846E968F8
:1018A000884770B3252805D0D5E901219047286ADB
:1018B000401CF2E7E9682846002688476C28044661
:1018C0000AD0682C08D04C2C35D06A2C31D0742C1E
:1018D00031D07A2C2FD016E0E96806462846884792
:1018E000B042044608D16C2E23D04FF480662846BF
:1018F000E9688847044606E06C2E03D04FF48076F2
:1019000001E01EE04026E4B1A4F14100192802D80C
:10191000203446F400663A46214628462E60FEF7FB
:101920001FFC60B1012808D0FF1D27F0070708370A
:10193000B4E78026DBE70026D9E73F1DAEE7204667
:10194000B2E7286ABDE8F08170477047704770477A
:101950002DE9F0470D4699469246044600F12408C9
:101960000168880604D5E06921F01001216000E0DB
:101970000120A84202DDA0EB050700E00027A169D5
:1019800007EB050202EB0900A1EB0000A061207843
:10199000C00602D42046AFF30080002608E0D4E958
:1019A00001211AF806009047206A401C761C20622C
:1019B0004E45F4DB2078C0060AD52046AFF3008000
:1019C00006E0D4E9012130209047206A401C2062C3
:1019D000381EA7F10107F4DC07E0D4E9012118F86B
:1019E00005009047206A401C2062281EA5F10105D1
:1019F000F3DC2046AFF300802078000602D50220F9
:101A0000BDE8F0870120FBE7074B70B50D467B442E
:101A100000F011F80446284600F020F810B14FF00D
:101A2000FF3070BD204670BDB1FCFFFF01694A1C4C
:101A300002610878704700B58FB0CDE9013100210F
:101A4000059105497944CDE9031011466846FFF731
:101A50001FFF0FB000BD0000E5FFFFFF007B00F09F
:101A600080007047754600F029F8AE4605006946CB
:101A7000534620F00700854618B020B5FEF786FDD6
:101A8000BDE820404FF000064FF000074FF000087F
:101A90004FF0000B21F00701AC46ACE8C009ACE800
:101AA000C009ACE8C009ACE8C0098D4670470446DF
:101AB000AFF300802046FEF765FB0000004870474A
:101AC0000C010020E41A000800000020440000007F
:101AD00028010008281B0008440000202C070000F3
:101AE00044010008000000000000000000000000A9
:101AF0000000000000A24A040000000000000000F6
:101B000001020304060708090000000001020304A3
:101B10000102030406070809020406080000000089
:081B20000000000000000000BD
:04000005080000ED02
:00000001FF
