:1004480057656C636F6D6520746F20757365210047
:10045800496E697469616C697A65204F4B21004661
:07046800203D200020670089
:0E05170002220000041C000000000220000070
:1000030075BCA043A2041204D57F801204ED7BFFCC
:100013007A04794812046F7F011204ED7F80120481
:10002300ED7BFF7A04795812046FE4FF12040B8E00
:10003300228F23E4FCFDF50FF50EF50DF50C75137A
:10004300FF751203F511F510F517F516F515F514EF
:10005300751B88751A13F519F5181203698E208F0D
:1000630021C3E5219464E520648094805007E4F57E
:100073001FF51E8014D3E52194E4E5206480948C5D
:10008300400DE4751F70751E17F51DF51C803CAE01
:1000930020AF21EE3395E0FDFCE4750F64F50EF51A
:1000A3000DF50C7513E475120CF511F51075171495
:1000B300F516F515F514751B70751A17F519F5185E
:1000C3001203698F1F8E1E8D1D8C1C7FC01204EDC1
:1000D3007BFF7A04796712046FE47B107A27F9F8BF
:1000E300AF1FAE1EAD1DAC1C1203C7EF2430FF12B1
:1000F3000502E47B107A27F9F8AF1FAE1EAD1DACE5
:100103001C1203C7AC00AD01AE02AF03E47BE87A77
:1001130003F9F81203C7EF2430FF120502E47BE86A
:100123007A03F9F8AF1FAE1EAD1DAC1C1203C7ACAA
:1001330000AD01AE02AF03E47B64FAF9F81203C722
:10014300EF2430FF120502E47B64FAF9F8AF1FAE27
:100153001EAD1DAC1C1203C7AC00AD01AE02AF0354
:10016300E47B0AFAF9F81203C7EF2430FF12050201
:10017300E47B0AFAF9F8AF1FAE1EAD1DAC1C1203E7
:10018300C7EB2430FF1205027BFF7A04796C12045B
:100193006F209004C2A08002D2A07F647E0012046C
:0401A3009502001FA2
:100369008F0B8E0A8D098C08C3E51B9517FBE51ABF
:100379009516FAE5199515F9E5189514F8C3E50BDD
:10038900950FFFE50A950EFEE509950DFDE5089522
:100399000CFC1201C0C3E513950FFBE512950EFA8B
:1003A900E511950DF9E510950CF81203C7EF25171E
:0E03B900FFEE3516FEED3515FDEC3514FC2279
:10040B007401A807088002C333D8FCF59DE4F5BD41
:10041B00F5BEE5BC54E044084FF5BC000000007F7E
:10042B00FAE5BC30E41053BCEF00000000AFBDEFA9
:0C043B00FEADBEEDFF22DFE97E047F0075
:010447002292
:10049500E4FDFCC3ED9FEC9E5015E4FBFA0BBB009D
:0F04A500010AEB647B4A70F50DBD00010C80E489
:0104B4002225
:1004B500E4FDFCC3ED9FEC9E5015E4FBFA0BBB007D
:0F04C500010ABA04F8BBCEF50DBD00010C80E4AE
:0104D4002205
:1004ED00A907C2A57F017E001204B5D2A78980128B
:0504FD0004B5C2A722B6
:10050200A907D2A57F017E001204B58980D2A71265
:0505120004B5C2A722A0
:10046F008B088A09890AAB08AA09A90A1201A7FFF2
:10047F00D3940040101205027401250AF50AE435E1
:06048F0009F50980E122DD
:1004D500C2A7C2A67F381204ED7F0C1204ED7F0679
:0804E5001204ED7F010204ED99
:030000000202DD1C
:0C02DD00787FE4F6D8FD7581230203242D
:1001A700BB010689828A83E0225002E722BBFE0256
:0901B700E32289828A83E4932289
:1001C000E88FF0A4CC8BF0A42CFCE98EF0A42CFCDE
:1001D0008AF0EDA42CFCEA8EF0A4CDA8F08BF0A45C
:1001E0002DCC3825F0FDE98FF0A42CCD35F0FCEBBB
:1001F0008EF0A4FEA9F0EB8FF0A4CFC5F02ECD3980
:0F020000FEE43CFCEAA42DCE35F0FDE43CFC22EC
:1003C700C2D5E830E70FB2D5E4C39BFBE49AFAE461
:1003D70099F9E498F8EC30E717B2D51203FD120249
:1003E7004BE4C39BFBE49AFAE499F9E498F8800399
:1003F70012024B30D50DE4C39FFFE49EFEE49DFD42
:04040700E49CFC2253
:1002E900020003E493A3F8E493A34003F68001F228
:1002F90008DFF48029E493A3F85407240CC8C33316
:10030900C4540F4420C8834004F456800146F6DFE4
:10031900E4800B0102040810204080900517E47E58
:10032900019360BCA3FF543F30E509541FFEE493D9
:10033900A360010ECF54C025E060A840B8E493A3A0
:10034900FAE493A3F8E493A3C8C582C8CAC583CACB
:10035900F0A3C8C582C8CAC583CADFE9DEE780BE83
:0105250000D5
:10020F0075F008758200EF2FFFEE33FECD33CDCCA6
:10021F0033CCC58233C5829BED9AEC99E582984029
:10022F000CF582EE9BFEED9AFDEC99FC0FD5F0D606
:10023F00E4CEFBE4CDFAE4CCF9A88222B800C1B930
:10024F000059BA002DEC8BF084CFCECDFCE5F0CB6E
:10025F00F97818EF2FFFEE33FEED33FDEC33FCEBA7
:10026F0033FB10D703994004EB99FB0FD8E5E4F962
:10027F00FA227818EF2FFFEE33FEED33FDEC33FC4F
:10028F00C933C910D7059BE99A4007EC9BFCE99A43
:10029F00F90FD8E0E4C9FAE4CCFB2275F010EF2F88
:1002AF00FFEE33FEED33FDCC33CCC833C810D70788
:1002BF009BEC9AE899400AED9BFDEC9AFCE899F8C3
:0E02CF000FD5F0DAE4CDFBE4CCFAE4C8F92256
:00000001FF
