:10024C0077656C636F6D6520746F20757365210025
:08025C00636F756E74203D0014
:0B02BA00010C00020A00000208000016
:100003001202647F8012027C7BFF7A02794C120118
:10001300E61202A6E50CB401F8E4F50C7FC0120267
:100023007C7BFF7A02795C1201E6AE0AAF0B7C2778
:100033007D101200CF7E037FE8CFCDCFCECCCE1282
:1000430000CFEF2430FF120291AE0AAF0B7C037D89
:10005300E81200CF7E007F64CFCDCFCECCCE12008E
:10006300CFEF2430FF120291AE0AAF0B7C007D6408
:100073001200CF7E007F0ACFCDCFCECCCE1200CFE1
:10008300EF2430FF120291AE0AAF0B7C007D0A12FF
:1000930000CFED2430FF120291050BE50B70020532
:1000A3000AE509640245086003020014F508F5092E
:0300B30002001434
:1002A6002091107F0A7E0012020C2091063091FDEB
:0402B600750C0122A0
:10020C00E4FDFCC3ED9FEC9E5015E4FBFA0BBB0028
:0F021C00010AEB647B4A70F50DBD00010C80E414
:01022B0022B0
:10022C00E4FDFCC3ED9FEC9E5015E4FBFA0BBB0008
:0F023C00010AEB647B4A70F50DBD00010C80E4F4
:01024B002290
:10027C00A907C2A57F017E0012022CD2A789801289
:05028C00022CC2A722B4
:10029100A907D2A57F017E0012022C8980D2A71264
:0502A100022CC2A7229F
:1001E6008B0D8A0E890FAB0DAA0EA90F1200B6FF52
:1001F600D3940040101202917401250FF50FE435D7
:060206000EF50E80E1225E
:10026400C2A7C2A67F3812027C7F0C12027C7F06D2
:0802740012027C7F0102027CF2
:0300000002015AA0
:0C015A00787FE4F6D8FD75810F0201A14A
:1000B600BB010689828A83E0225002E722BBFE0248
:0900C600E32289828A83E493227B
:1000CF00C2D5EC30E709B2D5E4C39DFDE49CFCEE4C
:1000DF0030E715B2D5E4C39FFFE49EFE120105C3BE
:1000EF00E49DFDE49CFC800312010530D507C3E4B9
:0600FF009FFFE49EFE22BB
:10016600020003E493A3F8E493A34003F68001F2AC
:1001760008DFF48029E493A3F85407240CC8C3339A
:10018600C4540F4420C8834004F456800146F6DF69
:10019600E4800B01020408102040809002BAE47E3D
:1001A600019360BCA3FF543F30E509541FFEE4935E
:1001B600A360010ECF54C025E060A840B8E493A325
:1001C600FAE493A3F8E493A3C8C582C8CAC583CA50
:1001D600F0A3C8C582C8CAC583CADFE9DEE780BE08
:0102C5000038
:10010500BC000BBE0029EF8DF084FFADF022E4CCDE
:10011500F875F008EF2FFFEE33FEEC33FCEE9DECA7
:10012500984005FCEE9DFE0FD5F0E9E4CEFD22EDED
:10013500F8F5F0EE8420D21CFEADF075F008EF2F37
:10014500FFED33FD4007985006D5F0F222C398FD28
:050155000FD5F0EA22C5
:00000001FF
